{"abi":[{"type":"constructor","inputs":[],"stateMutability":"nonpayable"},{"type":"function","name":"admin","inputs":[],"outputs":[{"name":"","type":"address","internalType":"address"}],"stateMutability":"view"},{"type":"function","name":"atualizarProntuario","inputs":[{"name":"id","type":"uint256","internalType":"uint256"},{"name":"cid","type":"string","internalType":"string"},{"name":"profissional","type":"address","internalType":"address"}],"outputs":[],"stateMutability":"nonpayable"},{"type":"function","name":"consentimento","inputs":[{"name":"","type":"address","internalType":"address"},{"name":"","type":"address","internalType":"address"}],"outputs":[{"name":"","type":"bool","internalType":"bool"}],"stateMutability":"view"},{"type":"function","name":"getProntuario","inputs":[{"name":"id","type":"uint256","internalType":"uint256"}],"outputs":[{"name":"paciente","type":"address","internalType":"address"},{"name":"cid","type":"string","internalType":"string"},{"name":"updatedAt","type":"uint256","internalType":"uint256"},{"name":"ultimoAutor","type":"address","internalType":"address"}],"stateMutability":"view"},{"type":"function","name":"listarProntuarios","inputs":[{"name":"paciente","type":"address","internalType":"address"}],"outputs":[{"name":"","type":"uint256[]","internalType":"uint256[]"}],"stateMutability":"view"},{"type":"function","name":"nextId","inputs":[],"outputs":[{"name":"","type":"uint256","internalType":"uint256"}],"stateMutability":"view"},{"type":"function","name":"pacientesRegistrados","inputs":[{"name":"","type":"address","internalType":"address"}],"outputs":[{"name":"","type":"bool","internalType":"bool"}],"stateMutability":"view"},{"type":"function","name":"profissionaisAutorizados","inputs":[{"name":"","type":"address","internalType":"address"}],"outputs":[{"name":"","type":"bool","internalType":"bool"}],"stateMutability":"view"},{"type":"function","name":"prontuarios","inputs":[{"name":"","type":"uint256","internalType":"uint256"}],"outputs":[{"name":"paciente","type":"address","internalType":"address"},{"name":"cid","type":"string","internalType":"string"},{"name":"updatedAt","type":"uint256","internalType":"uint256"},{"name":"ultimoAutor","type":"address","internalType":"address"}],"stateMutability":"view"},{"type":"function","name":"registrarPaciente","inputs":[{"name":"paciente","type":"address","internalType":"address"}],"outputs":[],"stateMutability":"nonpayable"},{"type":"function","name":"registrarProntuario","inputs":[{"name":"paciente","type":"address","internalType":"address"},{"name":"cid","type":"string","internalType":"string"},{"name":"profissional","type":"address","internalType":"address"}],"outputs":[{"name":"","type":"uint256","internalType":"uint256"}],"stateMutability":"nonpayable"},{"type":"function","name":"setConsentimento","inputs":[{"name":"paciente","type":"address","internalType":"address"},{"name":"profissional","type":"address","internalType":"address"},{"name":"permitido","type":"bool","internalType":"bool"}],"outputs":[],"stateMutability":"nonpayable"},{"type":"function","name":"setProfissionalAutorizado","inputs":[{"name":"profissional","type":"address","internalType":"address"},{"name":"permitido","type":"bool","internalType":"bool"}],"outputs":[],"stateMutability":"nonpayable"},{"type":"event","name":"ConsentimentoAlterado","inputs":[{"name":"paciente","type":"address","indexed":true,"internalType":"address"},{"name":"profissional","type":"address","indexed":true,"internalType":"address"},{"name":"permitido","type":"bool","indexed":false,"internalType":"bool"}],"anonymous":false},{"type":"event","name":"PacienteRegistrado","inputs":[{"name":"paciente","type":"address","indexed":false,"internalType":"address"}],"anonymous":false},{"type":"event","name":"ProfissionalAutorizado","inputs":[{"name":"profissional","type":"address","indexed":true,"internalType":"address"},{"name":"autorizado","type":"bool","indexed":false,"internalType":"bool"}],"anonymous":false},{"type":"event","name":"ProntuarioAtualizado","inputs":[{"name":"id","type":"uint256","indexed":true,"internalType":"uint256"},{"name":"autor","type":"address","indexed":true,"internalType":"address"},{"name":"cid","type":"string","indexed":false,"internalType":"string"}],"anonymous":false},{"type":"event","name":"ProntuarioCriado","inputs":[{"name":"id","type":"uint256","indexed":true,"internalType":"uint256"},{"name":"paciente","type":"address","indexed":true,"internalType":"address"},{"name":"autor","type":"address","indexed":true,"internalType":"address"},{"name":"cid","type":"string","indexed":false,"internalType":"string"}],"anonymous":false}],"bytecode":{"object":"0x608060405260016005553480156013575f5ffd5b50335f5f6101000a81548173ffffffffffffffffffffffffffffffffffffffff021916908373ffffffffffffffffffffffffffffffffffffffff160217905550611e83806100605f395ff3fe608060405234801561000f575f5ffd5b50600436106100cd575f3560e01c8063954efe7b1161008a578063b0733cd811610064578063b0733cd814610239578063f851a44014610255578063f8d20fcc14610273578063fe6fd06c146102a3576100cd565b8063954efe7b146101a6578063987674cd146101d65780639d0f4f1c14610209576100cd565b80632bd16184146100d15780634b458333146101045780634f3bab841461012057806361b8ce8c1461013c5780636973e6751461015a57806386b57b2b1461018a575b5f5ffd5b6100eb60048036038101906100e6919061114a565b6102d3565b6040516100fb9493929190611233565b60405180910390f35b61011e600480360381019061011991906112dc565b6103d6565b005b61013a6004803603810190610135919061132c565b610558565b005b61014461068c565b604051610151919061136a565b60405180910390f35b610174600480360381019061016f9190611383565b610692565b6040516101819190611465565b60405180910390f35b6101a4600480360381019061019f91906114e6565b610725565b005b6101c060048036038101906101bb9190611383565b6109f6565b6040516101cd9190611566565b60405180910390f35b6101f060048036038101906101eb919061114a565b610a13565b6040516102009493929190611233565b60405180910390f35b610223600480360381019061021e919061157f565b610b03565b6040516102309190611566565b60405180910390f35b610253600480360381019061024e9190611383565b610b2d565b005b61025d610cb4565b60405161026a91906115bd565b60405180910390f35b61028d600480360381019061028891906115d6565b610cd8565b60405161029a919061136a565b60405180910390f35b6102bd60048036038101906102b89190611383565b6110f2565b6040516102ca9190611566565b60405180910390f35b5f60605f5f5f60045f8781526020019081526020015f209050805f015f9054906101000a900473ffffffffffffffffffffffffffffffffffffffff16816001018260020154836003015f9054906101000a900473ffffffffffffffffffffffffffffffffffffffff1682805461034890611674565b80601f016020809104026020016040519081016040528092919081815260200182805461037490611674565b80156103bf5780601f10610396576101008083540402835291602001916103bf565b820191905f5260205f20905b8154815290600101906020018083116103a257829003601f168201915b505050505092509450945094509450509193509193565b60025f8473ffffffffffffffffffffffffffffffffffffffff1673ffffffffffffffffffffffffffffffffffffffff1681526020019081526020015f205f9054906101000a900460ff1661045f576040517f08c379a0000000000000000000000000000000000000000000000000000000008152600401610456906116ee565b60405180910390fd5b8060065f8573ffffffffffffffffffffffffffffffffffffffff1673ffffffffffffffffffffffffffffffffffffffff1681526020019081526020015f205f8473ffffffffffffffffffffffffffffffffffffffff1673ffffffffffffffffffffffffffffffffffffffff1681526020019081526020015f205f6101000a81548160ff0219169083151502179055508173ffffffffffffffffffffffffffffffffffffffff168373ffffffffffffffffffffffffffffffffffffffff167fd249a80cbba25bf2ba8787343bf3fca9b994f3f339bc9389480eb3cb59daf67f8360405161054b9190611566565b60405180910390a3505050565b5f5f9054906101000a900473ffffffffffffffffffffffffffffffffffffffff1673ffffffffffffffffffffffffffffffffffffffff163373ffffffffffffffffffffffffffffffffffffffff16146105e6576040517f08c379a00000000000000000000000000000000000000000000000000000000081526004016105dd90611756565b60405180910390fd5b8060015f8473ffffffffffffffffffffffffffffffffffffffff1673ffffffffffffffffffffffffffffffffffffffff1681526020019081526020015f205f6101000a81548160ff0219169083151502179055508173ffffffffffffffffffffffffffffffffffffffff167f2626ebcd3982f29330e17ec86ac26499002f23a111a36e4045fc1a9c3ac02c6f826040516106809190611566565b60405180910390a25050565b60055481565b606060035f8373ffffffffffffffffffffffffffffffffffffffff1673ffffffffffffffffffffffffffffffffffffffff1681526020019081526020015f2080548060200260200160405190810160405280929190818152602001828054801561071957602002820191905f5260205f20905b815481526020019060010190808311610705575b50505050509050919050565b60015f3373ffffffffffffffffffffffffffffffffffffffff1673ffffffffffffffffffffffffffffffffffffffff1681526020019081526020015f205f9054906101000a900460ff166107ae576040517f08c379a00000000000000000000000000000000000000000000000000000000081526004016107a5906117be565b60405180910390fd5b5f60045f8681526020019081526020015f2090505f73ffffffffffffffffffffffffffffffffffffffff16815f015f9054906101000a900473ffffffffffffffffffffffffffffffffffffffff1673ffffffffffffffffffffffffffffffffffffffff1603610852576040517f08c379a000000000000000000000000000000000000000000000000000000000815260040161084990611826565b60405180910390fd5b6001151560065f835f015f9054906101000a900473ffffffffffffffffffffffffffffffffffffffff1673ffffffffffffffffffffffffffffffffffffffff1673ffffffffffffffffffffffffffffffffffffffff1681526020019081526020015f205f8473ffffffffffffffffffffffffffffffffffffffff1673ffffffffffffffffffffffffffffffffffffffff1681526020019081526020015f205f9054906101000a900460ff1615151461093f576040517f08c379a00000000000000000000000000000000000000000000000000000000081526004016109369061188e565b60405180910390fd5b8383826001019182610952929190611a83565b5042816002018190555081816003015f6101000a81548173ffffffffffffffffffffffffffffffffffffffff021916908373ffffffffffffffffffffffffffffffffffffffff1602179055503373ffffffffffffffffffffffffffffffffffffffff16857f56ecdcc4f4c47162e67b88b525bbf80ec9d7525490c824a38c248cb8996d88b986866040516109e7929190611b8a565b60405180910390a35050505050565b6002602052805f5260405f205f915054906101000a900460ff1681565b6004602052805f5260405f205f91509050805f015f9054906101000a900473ffffffffffffffffffffffffffffffffffffffff1690806001018054610a5790611674565b80601f0160208091040260200160405190810160405280929190818152602001828054610a8390611674565b8015610ace5780601f10610aa557610100808354040283529160200191610ace565b820191905f5260205f20905b815481529060010190602001808311610ab157829003601f168201915b505050505090806002015490806003015f9054906101000a900473ffffffffffffffffffffffffffffffffffffffff16905084565b6006602052815f5260405f20602052805f5260405f205f915091509054906101000a900460ff1681565b5f73ffffffffffffffffffffffffffffffffffffffff168173ffffffffffffffffffffffffffffffffffffffff1603610b9b576040517f08c379a0000000000000000000000000000000000000000000000000000000008152600401610b9290611bf6565b60405180910390fd5b60025f8273ffffffffffffffffffffffffffffffffffffffff1673ffffffffffffffffffffffffffffffffffffffff1681526020019081526020015f205f9054906101000a900460ff1615610c25576040517f08c379a0000000000000000000000000000000000000000000000000000000008152600401610c1c90611c5e565b60405180910390fd5b600160025f8373ffffffffffffffffffffffffffffffffffffffff1673ffffffffffffffffffffffffffffffffffffffff1681526020019081526020015f205f6101000a81548160ff0219169083151502179055507f8fab20e5166639812f3afd58f98a4ca13a16cebe1498ae8f3aabde0de4415b4981604051610ca991906115bd565b60405180910390a150565b5f5f9054906101000a900473ffffffffffffffffffffffffffffffffffffffff1681565b5f60015f3373ffffffffffffffffffffffffffffffffffffffff1673ffffffffffffffffffffffffffffffffffffffff1681526020019081526020015f205f9054906101000a900460ff16610d62576040517f08c379a0000000000000000000000000000000000000000000000000000000008152600401610d59906117be565b60405180910390fd5b60025f8673ffffffffffffffffffffffffffffffffffffffff1673ffffffffffffffffffffffffffffffffffffffff1681526020019081526020015f205f9054906101000a900460ff16610deb576040517f08c379a0000000000000000000000000000000000000000000000000000000008152600401610de2906116ee565b60405180910390fd5b6001151560065f8773ffffffffffffffffffffffffffffffffffffffff1673ffffffffffffffffffffffffffffffffffffffff1681526020019081526020015f205f8473ffffffffffffffffffffffffffffffffffffffff1673ffffffffffffffffffffffffffffffffffffffff1681526020019081526020015f205f9054906101000a900460ff16151514610eb6576040517f08c379a0000000000000000000000000000000000000000000000000000000008152600401610ead90611cec565b60405180910390fd5b5f60055f815480929190610ec990611d37565b91905055905060405180608001604052808773ffffffffffffffffffffffffffffffffffffffff16815260200186868080601f0160208091040260200160405190810160405280939291908181526020018383808284375f81840152601f19601f8201169050808301925050505050505081526020014281526020018473ffffffffffffffffffffffffffffffffffffffff1681525060045f8381526020019081526020015f205f820151815f015f6101000a81548173ffffffffffffffffffffffffffffffffffffffff021916908373ffffffffffffffffffffffffffffffffffffffff1602179055506020820151816001019081610fc99190611d7e565b50604082015181600201556060820151816003015f6101000a81548173ffffffffffffffffffffffffffffffffffffffff021916908373ffffffffffffffffffffffffffffffffffffffff16021790555090505060035f8773ffffffffffffffffffffffffffffffffffffffff1673ffffffffffffffffffffffffffffffffffffffff1681526020019081526020015f2081908060018154018082558091505060019003905f5260205f20015f90919091909150553373ffffffffffffffffffffffffffffffffffffffff168673ffffffffffffffffffffffffffffffffffffffff16827f8b91981ba17dd70e2a920d96958f0cfba2de965a24e7ef41a7868fb2e8bacc0d88886040516110de929190611b8a565b60405180910390a480915050949350505050565b6001602052805f5260405f205f915054906101000a900460ff1681565b5f5ffd5b5f5ffd5b5f819050919050565b61112981611117565b8114611133575f5ffd5b50565b5f8135905061114481611120565b92915050565b5f6020828403121561115f5761115e61110f565b5b5f61116c84828501611136565b91505092915050565b5f73ffffffffffffffffffffffffffffffffffffffff82169050919050565b5f61119e82611175565b9050919050565b6111ae81611194565b82525050565b5f81519050919050565b5f82825260208201905092915050565b8281835e5f83830152505050565b5f601f19601f8301169050919050565b5f6111f6826111b4565b61120081856111be565b93506112108185602086016111ce565b611219816111dc565b840191505092915050565b61122d81611117565b82525050565b5f6080820190506112465f8301876111a5565b818103602083015261125881866111ec565b90506112676040830185611224565b61127460608301846111a5565b95945050505050565b61128681611194565b8114611290575f5ffd5b50565b5f813590506112a18161127d565b92915050565b5f8115159050919050565b6112bb816112a7565b81146112c5575f5ffd5b50565b5f813590506112d6816112b2565b92915050565b5f5f5f606084860312156112f3576112f261110f565b5b5f61130086828701611293565b935050602061131186828701611293565b9250506040611322868287016112c8565b9150509250925092565b5f5f604083850312156113425761134161110f565b5b5f61134f85828601611293565b9250506020611360858286016112c8565b9150509250929050565b5f60208201905061137d5f830184611224565b92915050565b5f602082840312156113985761139761110f565b5b5f6113a584828501611293565b91505092915050565b5f81519050919050565b5f82825260208201905092915050565b5f819050602082019050919050565b6113e081611117565b82525050565b5f6113f183836113d7565b60208301905092915050565b5f602082019050919050565b5f611413826113ae565b61141d81856113b8565b9350611428836113c8565b805f5b8381101561145857815161143f88826113e6565b975061144a836113fd565b92505060018101905061142b565b5085935050505092915050565b5f6020820190508181035f83015261147d8184611409565b905092915050565b5f5ffd5b5f5ffd5b5f5ffd5b5f5f83601f8401126114a6576114a5611485565b5b8235905067ffffffffffffffff8111156114c3576114c2611489565b5b6020830191508360018202830111156114df576114de61148d565b5b9250929050565b5f5f5f5f606085870312156114fe576114fd61110f565b5b5f61150b87828801611136565b945050602085013567ffffffffffffffff81111561152c5761152b611113565b5b61153887828801611491565b9350935050604061154b87828801611293565b91505092959194509250565b611560816112a7565b82525050565b5f6020820190506115795f830184611557565b92915050565b5f5f604083850312156115955761159461110f565b5b5f6115a285828601611293565b92505060206115b385828601611293565b9150509250929050565b5f6020820190506115d05f8301846111a5565b92915050565b5f5f5f5f606085870312156115ee576115ed61110f565b5b5f6115fb87828801611293565b945050602085013567ffffffffffffffff81111561161c5761161b611113565b5b61162887828801611491565b9350935050604061163b87828801611293565b91505092959194509250565b7f4e487b71000000000000000000000000000000000000000000000000000000005f52602260045260245ffd5b5f600282049050600182168061168b57607f821691505b60208210810361169e5761169d611647565b5b50919050565b7f50616369656e7465206e616f207265676973747261646f0000000000000000005f82015250565b5f6116d86017836111be565b91506116e3826116a4565b602082019050919050565b5f6020820190508181035f830152611705816116cc565b9050919050565b7f536f6d656e74652061646d696e000000000000000000000000000000000000005f82015250565b5f611740600d836111be565b915061174b8261170c565b602082019050919050565b5f6020820190508181035f83015261176d81611734565b9050919050565b7f536f6d656e74652070726f66697373696f6e616c206175746f72697a61646f005f82015250565b5f6117a8601f836111be565b91506117b382611774565b602082019050919050565b5f6020820190508181035f8301526117d58161179c565b9050919050565b7f50726f6e74756172696f20696e76616c69646f000000000000000000000000005f82015250565b5f6118106013836111be565b915061181b826117dc565b602082019050919050565b5f6020820190508181035f83015261183d81611804565b9050919050565b7f50726f66697373696f6e616c2073656d20636f6e73656e74696d656e746f00005f82015250565b5f611878601e836111be565b915061188382611844565b602082019050919050565b5f6020820190508181035f8301526118a58161186c565b9050919050565b5f82905092915050565b7f4e487b71000000000000000000000000000000000000000000000000000000005f52604160045260245ffd5b5f819050815f5260205f209050919050565b5f6020601f8301049050919050565b5f82821b905092915050565b5f6008830261193f7fffffffffffffffffffffffffffffffffffffffffffffffffffffffffffffffff82611904565b6119498683611904565b95508019841693508086168417925050509392505050565b5f819050919050565b5f61198461197f61197a84611117565b611961565b611117565b9050919050565b5f819050919050565b61199d8361196a565b6119b16119a98261198b565b848454611910565b825550505050565b5f5f905090565b6119c86119b9565b6119d3818484611994565b505050565b5b818110156119f6576119eb5f826119c0565b6001810190506119d9565b5050565b601f821115611a3b57611a0c816118e3565b611a15846118f5565b81016020851015611a24578190505b611a38611a30856118f5565b8301826119d8565b50505b505050565b5f82821c905092915050565b5f611a5b5f1984600802611a40565b1980831691505092915050565b5f611a738383611a4c565b9150826002028217905092915050565b611a8d83836118ac565b67ffffffffffffffff811115611aa657611aa56118b6565b5b611ab08254611674565b611abb8282856119fa565b5f601f831160018114611ae8575f8415611ad6578287013590505b611ae08582611a68565b865550611b47565b601f198416611af6866118e3565b5f5b82811015611b1d57848901358255600182019150602085019450602081019050611af8565b86831015611b3a5784890135611b36601f891682611a4c565b8355505b6001600288020188555050505b50505050505050565b828183375f83830152505050565b5f611b6983856111be565b9350611b76838584611b50565b611b7f836111dc565b840190509392505050565b5f6020820190508181035f830152611ba3818486611b5e565b90509392505050565b7f456e64657265636f20696e76616c69646f0000000000000000000000000000005f82015250565b5f611be06011836111be565b9150611beb82611bac565b602082019050919050565b5f6020820190508181035f830152611c0d81611bd4565b9050919050565b7f50616369656e7465206a61207265676973747261646f000000000000000000005f82015250565b5f611c486016836111be565b9150611c5382611c14565b602082019050919050565b5f6020820190508181035f830152611c7581611c3c565b9050919050565b7f50726f66697373696f6e616c2073656d20636f6e73656e74696d656e746f20645f8201527f6f2070616369656e746500000000000000000000000000000000000000000000602082015250565b5f611cd6602a836111be565b9150611ce182611c7c565b604082019050919050565b5f6020820190508181035f830152611d0381611cca565b9050919050565b7f4e487b71000000000000000000000000000000000000000000000000000000005f52601160045260245ffd5b5f611d4182611117565b91507fffffffffffffffffffffffffffffffffffffffffffffffffffffffffffffffff8203611d7357611d72611d0a565b5b600182019050919050565b611d87826111b4565b67ffffffffffffffff811115611da057611d9f6118b6565b5b611daa8254611674565b611db58282856119fa565b5f60209050601f831160018114611de6575f8415611dd4578287015190505b611dde8582611a68565b865550611e45565b601f198416611df4866118e3565b5f5b82811015611e1b57848901518255600182019150602085019450602081019050611df6565b86831015611e385784890151611e34601f891682611a4c565b8355505b6001600288020188555050505b50505050505056fea2646970667358221220d006eed00f79d1250f3fa5b53c9e72d78bc21cffd24205d8b4d8dcc8d8287e6a64736f6c634300081e0033","linkReferences":{}},"methodIdentifiers":{"admin()":"f851a440","atualizarProntuario(uint256,string,address)":"86b57b2b","consentimento(address,address)":"9d0f4f1c","getProntuario(uint256)":"2bd16184","listarProntuarios(address)":"6973e675","nextId()":"61b8ce8c","pacientesRegistrados(address)":"954efe7b","profissionaisAutorizados(address)":"fe6fd06c","prontuarios(uint256)":"987674cd","registrarPaciente(address)":"b0733cd8","registrarProntuario(address,string,address)":"f8d20fcc","setConsentimento(address,address,bool)":"4b458333","setProfissionalAutorizado(address,bool)":"4f3bab84"},"id":17}