{"abi":[{"type":"constructor","inputs":[],"stateMutability":"nonpayable"},{"type":"function","name":"admin","inputs":[],"outputs":[{"name":"","type":"address","internalType":"address"}],"stateMutability":"view"},{"type":"function","name":"apiSigner","inputs":[],"outputs":[{"name":"","type":"address","internalType":"address"}],"stateMutability":"view"},{"type":"function","name":"atualizarProntuario","inputs":[{"name":"id","type":"uint256","internalType":"uint256"},{"name":"cid","type":"string","internalType":"string"},{"name":"profissional","type":"address","internalType":"address"}],"outputs":[],"stateMutability":"nonpayable"},{"type":"function","name":"consentimento","inputs":[{"name":"","type":"address","internalType":"address"},{"name":"","type":"address","internalType":"address"}],"outputs":[{"name":"","type":"bool","internalType":"bool"}],"stateMutability":"view"},{"type":"function","name":"criarProntuario","inputs":[{"name":"paciente","type":"address","internalType":"address"},{"name":"cid","type":"string","internalType":"string"},{"name":"profissional","type":"address","internalType":"address"}],"outputs":[{"name":"","type":"uint256","internalType":"uint256"}],"stateMutability":"nonpayable"},{"type":"function","name":"getProntuario","inputs":[{"name":"id","type":"uint256","internalType":"uint256"}],"outputs":[{"name":"paciente","type":"address","internalType":"address"},{"name":"cid","type":"string","internalType":"string"},{"name":"updatedAt","type":"uint256","internalType":"uint256"},{"name":"ultimoAutor","type":"address","internalType":"address"}],"stateMutability":"view"},{"type":"function","name":"listarProntuarios","inputs":[{"name":"paciente","type":"address","internalType":"address"}],"outputs":[{"name":"","type":"uint256[]","internalType":"uint256[]"}],"stateMutability":"view"},{"type":"function","name":"nextId","inputs":[],"outputs":[{"name":"","type":"uint256","internalType":"uint256"}],"stateMutability":"view"},{"type":"function","name":"pacientesRegistrados","inputs":[{"name":"","type":"address","internalType":"address"}],"outputs":[{"name":"","type":"bool","internalType":"bool"}],"stateMutability":"view"},{"type":"function","name":"profissionaisAutorizados","inputs":[{"name":"","type":"address","internalType":"address"}],"outputs":[{"name":"","type":"bool","internalType":"bool"}],"stateMutability":"view"},{"type":"function","name":"prontuarios","inputs":[{"name":"","type":"uint256","internalType":"uint256"}],"outputs":[{"name":"paciente","type":"address","internalType":"address"},{"name":"cid","type":"string","internalType":"string"},{"name":"updatedAt","type":"uint256","internalType":"uint256"},{"name":"ultimoAutor","type":"address","internalType":"address"}],"stateMutability":"view"},{"type":"function","name":"registrarPaciente","inputs":[{"name":"paciente","type":"address","internalType":"address"}],"outputs":[],"stateMutability":"nonpayable"},{"type":"function","name":"setApiSigner","inputs":[{"name":"_novoSigner","type":"address","internalType":"address"}],"outputs":[],"stateMutability":"nonpayable"},{"type":"function","name":"setConsentimento","inputs":[{"name":"paciente","type":"address","internalType":"address"},{"name":"profissional","type":"address","internalType":"address"},{"name":"permitido","type":"bool","internalType":"bool"}],"outputs":[],"stateMutability":"nonpayable"},{"type":"function","name":"setProfissionalAutorizado","inputs":[{"name":"profissional","type":"address","internalType":"address"},{"name":"permitido","type":"bool","internalType":"bool"}],"outputs":[],"stateMutability":"nonpayable"},{"type":"event","name":"ApiSignerAtualizado","inputs":[{"name":"novoSigner","type":"address","indexed":false,"internalType":"address"}],"anonymous":false},{"type":"event","name":"ConsentimentoAlterado","inputs":[{"name":"paciente","type":"address","indexed":true,"internalType":"address"},{"name":"profissional","type":"address","indexed":true,"internalType":"address"},{"name":"permitido","type":"bool","indexed":false,"internalType":"bool"}],"anonymous":false},{"type":"event","name":"PacienteRegistrado","inputs":[{"name":"paciente","type":"address","indexed":false,"internalType":"address"}],"anonymous":false},{"type":"event","name":"ProfissionalAutorizado","inputs":[{"name":"profissional","type":"address","indexed":true,"internalType":"address"},{"name":"autorizado","type":"bool","indexed":false,"internalType":"bool"}],"anonymous":false},{"type":"event","name":"ProntuarioAtualizado","inputs":[{"name":"id","type":"uint256","indexed":true,"internalType":"uint256"},{"name":"autorMedico","type":"address","indexed":true,"internalType":"address"},{"name":"cid","type":"string","indexed":false,"internalType":"string"}],"anonymous":false},{"type":"event","name":"ProntuarioCriado","inputs":[{"name":"id","type":"uint256","indexed":true,"internalType":"uint256"},{"name":"paciente","type":"address","indexed":true,"internalType":"address"},{"name":"autorMedico","type":"address","indexed":true,"internalType":"address"},{"name":"cid","type":"string","indexed":false,"internalType":"string"}],"anonymous":false}],"bytecode":{"object":"0x608060405260016006553480156013575f5ffd5b50335f5f6101000a81548173ffffffffffffffffffffffffffffffffffffffff021916908373ffffffffffffffffffffffffffffffffffffffff1602179055503360015f6101000a81548173ffffffffffffffffffffffffffffffffffffffff021916908373ffffffffffffffffffffffffffffffffffffffff160217905550612342806100a05f395ff3fe608060405234801561000f575f5ffd5b50600436106100f3575f3560e01c8063954efe7b11610095578063b0733cd811610064578063b0733cd814610299578063bfc0f0dc146102b5578063f851a440146102e5578063fe6fd06c14610303576100f3565b8063954efe7b146101e8578063987674cd146102185780639d0f4f1c1461024b578063aa5538261461027b576100f3565b80634f3bab84116100d15780634f3bab841461016257806361b8ce8c1461017e5780636973e6751461019c57806386b57b2b146101cc576100f3565b80630b984995146100f75780632bd16184146101135780634b45833314610146575b5f5ffd5b610111600480360381019061010c919061153a565b610333565b005b61012d60048036038101906101289190611598565b61043b565b60405161013d9493929190611651565b60405180910390f35b610160600480360381019061015b91906116d0565b61053e565b005b61017c60048036038101906101779190611720565b61074f565b005b610186610883565b604051610193919061175e565b60405180910390f35b6101b660048036038101906101b1919061153a565b610889565b6040516101c3919061182e565b60405180910390f35b6101e660048036038101906101e191906118af565b61091c565b005b61020260048036038101906101fd919061153a565b610c7c565b60405161020f919061192f565b60405180910390f35b610232600480360381019061022d9190611598565b610c99565b6040516102429493929190611651565b60405180910390f35b61026560048036038101906102609190611948565b610d89565b604051610272919061192f565b60405180910390f35b610283610db3565b6040516102909190611986565b60405180910390f35b6102b360048036038101906102ae919061153a565b610dd8565b005b6102cf60048036038101906102ca919061199f565b610fee565b6040516102dc919061175e565b60405180910390f35b6102ed611497565b6040516102fa9190611986565b60405180910390f35b61031d6004803603810190610318919061153a565b6114bb565b60405161032a919061192f565b60405180910390f35b5f5f9054906101000a900473ffffffffffffffffffffffffffffffffffffffff1673ffffffffffffffffffffffffffffffffffffffff163373ffffffffffffffffffffffffffffffffffffffff16146103c1576040517f08c379a00000000000000000000000000000000000000000000000000000000081526004016103b890611a5a565b60405180910390fd5b8060015f6101000a81548173ffffffffffffffffffffffffffffffffffffffff021916908373ffffffffffffffffffffffffffffffffffffffff1602179055507f57969d3680d83e6b5e491747743c5ff7f25af2c423df8c60b827684afcc0811e816040516104309190611986565b60405180910390a150565b5f60605f5f5f60055f8781526020019081526020015f209050805f015f9054906101000a900473ffffffffffffffffffffffffffffffffffffffff16816001018260020154836003015f9054906101000a900473ffffffffffffffffffffffffffffffffffffffff168280546104b090611aa5565b80601f01602080910402602001604051908101604052809291908181526020018280546104dc90611aa5565b80156105275780601f106104fe57610100808354040283529160200191610527565b820191905f5260205f20905b81548152906001019060200180831161050a57829003601f168201915b505050505092509450945094509450509193509193565b60015f9054906101000a900473ffffffffffffffffffffffffffffffffffffffff1673ffffffffffffffffffffffffffffffffffffffff163373ffffffffffffffffffffffffffffffffffffffff16146105cd576040517f08c379a00000000000000000000000000000000000000000000000000000000081526004016105c490611b1f565b60405180910390fd5b60035f8473ffffffffffffffffffffffffffffffffffffffff1673ffffffffffffffffffffffffffffffffffffffff1681526020019081526020015f205f9054906101000a900460ff16610656576040517f08c379a000000000000000000000000000000000000000000000000000000000815260040161064d90611b87565b60405180910390fd5b8060075f8573ffffffffffffffffffffffffffffffffffffffff1673ffffffffffffffffffffffffffffffffffffffff1681526020019081526020015f205f8473ffffffffffffffffffffffffffffffffffffffff1673ffffffffffffffffffffffffffffffffffffffff1681526020019081526020015f205f6101000a81548160ff0219169083151502179055508173ffffffffffffffffffffffffffffffffffffffff168373ffffffffffffffffffffffffffffffffffffffff167fd249a80cbba25bf2ba8787343bf3fca9b994f3f339bc9389480eb3cb59daf67f83604051610742919061192f565b60405180910390a3505050565b5f5f9054906101000a900473ffffffffffffffffffffffffffffffffffffffff1673ffffffffffffffffffffffffffffffffffffffff163373ffffffffffffffffffffffffffffffffffffffff16146107dd576040517f08c379a00000000000000000000000000000000000000000000000000000000081526004016107d490611a5a565b60405180910390fd5b8060025f8473ffffffffffffffffffffffffffffffffffffffff1673ffffffffffffffffffffffffffffffffffffffff1681526020019081526020015f205f6101000a81548160ff0219169083151502179055508173ffffffffffffffffffffffffffffffffffffffff167f2626ebcd3982f29330e17ec86ac26499002f23a111a36e4045fc1a9c3ac02c6f82604051610877919061192f565b60405180910390a25050565b60065481565b606060045f8373ffffffffffffffffffffffffffffffffffffffff1673ffffffffffffffffffffffffffffffffffffffff1681526020019081526020015f2080548060200260200160405190810160405280929190818152602001828054801561091057602002820191905f5260205f20905b8154815260200190600101908083116108fc575b50505050509050919050565b60015f9054906101000a900473ffffffffffffffffffffffffffffffffffffffff1673ffffffffffffffffffffffffffffffffffffffff163373ffffffffffffffffffffffffffffffffffffffff16146109ab576040517f08c379a00000000000000000000000000000000000000000000000000000000081526004016109a290611b1f565b60405180910390fd5b5f60055f8681526020019081526020015f2090505f73ffffffffffffffffffffffffffffffffffffffff16815f015f9054906101000a900473ffffffffffffffffffffffffffffffffffffffff1673ffffffffffffffffffffffffffffffffffffffff1603610a4f576040517f08c379a0000000000000000000000000000000000000000000000000000000008152600401610a4690611bef565b60405180910390fd5b60025f8373ffffffffffffffffffffffffffffffffffffffff1673ffffffffffffffffffffffffffffffffffffffff1681526020019081526020015f205f9054906101000a900460ff16610ad8576040517f08c379a0000000000000000000000000000000000000000000000000000000008152600401610acf90611c57565b60405180910390fd5b6001151560075f835f015f9054906101000a900473ffffffffffffffffffffffffffffffffffffffff1673ffffffffffffffffffffffffffffffffffffffff1673ffffffffffffffffffffffffffffffffffffffff1681526020019081526020015f205f8473ffffffffffffffffffffffffffffffffffffffff1673ffffffffffffffffffffffffffffffffffffffff1681526020019081526020015f205f9054906101000a900460ff16151514610bc5576040517f08c379a0000000000000000000000000000000000000000000000000000000008152600401610bbc90611cbf565b60405180910390fd5b8383826001019182610bd8929190611eb4565b5042816002018190555081816003015f6101000a81548173ffffffffffffffffffffffffffffffffffffffff021916908373ffffffffffffffffffffffffffffffffffffffff1602179055508173ffffffffffffffffffffffffffffffffffffffff16857f56ecdcc4f4c47162e67b88b525bbf80ec9d7525490c824a38c248cb8996d88b98686604051610c6d929190611fbb565b60405180910390a35050505050565b6003602052805f5260405f205f915054906101000a900460ff1681565b6005602052805f5260405f205f91509050805f015f9054906101000a900473ffffffffffffffffffffffffffffffffffffffff1690806001018054610cdd90611aa5565b80601f0160208091040260200160405190810160405280929190818152602001828054610d0990611aa5565b8015610d545780601f10610d2b57610100808354040283529160200191610d54565b820191905f5260205f20905b815481529060010190602001808311610d3757829003601f168201915b505050505090806002015490806003015f9054906101000a900473ffffffffffffffffffffffffffffffffffffffff16905084565b6007602052815f5260405f20602052805f5260405f205f915091509054906101000a900460ff1681565b60015f9054906101000a900473ffffffffffffffffffffffffffffffffffffffff1681565b60015f9054906101000a900473ffffffffffffffffffffffffffffffffffffffff1673ffffffffffffffffffffffffffffffffffffffff163373ffffffffffffffffffffffffffffffffffffffff1614610e67576040517f08c379a0000000000000000000000000000000000000000000000000000000008152600401610e5e90611b1f565b60405180910390fd5b5f73ffffffffffffffffffffffffffffffffffffffff168173ffffffffffffffffffffffffffffffffffffffff1603610ed5576040517f08c379a0000000000000000000000000000000000000000000000000000000008152600401610ecc90612027565b60405180910390fd5b60035f8273ffffffffffffffffffffffffffffffffffffffff1673ffffffffffffffffffffffffffffffffffffffff1681526020019081526020015f205f9054906101000a900460ff1615610f5f576040517f08c379a0000000000000000000000000000000000000000000000000000000008152600401610f569061208f565b60405180910390fd5b600160035f8373ffffffffffffffffffffffffffffffffffffffff1673ffffffffffffffffffffffffffffffffffffffff1681526020019081526020015f205f6101000a81548160ff0219169083151502179055507f8fab20e5166639812f3afd58f98a4ca13a16cebe1498ae8f3aabde0de4415b4981604051610fe39190611986565b60405180910390a150565b5f60015f9054906101000a900473ffffffffffffffffffffffffffffffffffffffff1673ffffffffffffffffffffffffffffffffffffffff163373ffffffffffffffffffffffffffffffffffffffff161461107e576040517f08c379a000000000000000000000000000000000000000000000000000000000815260040161107590611b1f565b60405180910390fd5b60035f8673ffffffffffffffffffffffffffffffffffffffff1673ffffffffffffffffffffffffffffffffffffffff1681526020019081526020015f205f9054906101000a900460ff16611107576040517f08c379a00000000000000000000000000000000000000000000000000000000081526004016110fe90611b87565b60405180910390fd5b60025f8373ffffffffffffffffffffffffffffffffffffffff1673ffffffffffffffffffffffffffffffffffffffff1681526020019081526020015f205f9054906101000a900460ff16611190576040517f08c379a00000000000000000000000000000000000000000000000000000000081526004016111879061211d565b60405180910390fd5b6001151560075f8773ffffffffffffffffffffffffffffffffffffffff1673ffffffffffffffffffffffffffffffffffffffff1681526020019081526020015f205f8473ffffffffffffffffffffffffffffffffffffffff1673ffffffffffffffffffffffffffffffffffffffff1681526020019081526020015f205f9054906101000a900460ff1615151461125b576040517f08c379a0000000000000000000000000000000000000000000000000000000008152600401611252906121ab565b60405180910390fd5b5f60065f81548092919061126e906121f6565b91905055905060405180608001604052808773ffffffffffffffffffffffffffffffffffffffff16815260200186868080601f0160208091040260200160405190810160405280939291908181526020018383808284375f81840152601f19601f8201169050808301925050505050505081526020014281526020018473ffffffffffffffffffffffffffffffffffffffff1681525060055f8381526020019081526020015f205f820151815f015f6101000a81548173ffffffffffffffffffffffffffffffffffffffff021916908373ffffffffffffffffffffffffffffffffffffffff160217905550602082015181600101908161136e919061223d565b50604082015181600201556060820151816003015f6101000a81548173ffffffffffffffffffffffffffffffffffffffff021916908373ffffffffffffffffffffffffffffffffffffffff16021790555090505060045f8773ffffffffffffffffffffffffffffffffffffffff1673ffffffffffffffffffffffffffffffffffffffff1681526020019081526020015f2081908060018154018082558091505060019003905f5260205f20015f90919091909150558273ffffffffffffffffffffffffffffffffffffffff168673ffffffffffffffffffffffffffffffffffffffff16827f8b91981ba17dd70e2a920d96958f0cfba2de965a24e7ef41a7868fb2e8bacc0d8888604051611483929190611fbb565b60405180910390a480915050949350505050565b5f5f9054906101000a900473ffffffffffffffffffffffffffffffffffffffff1681565b6002602052805f5260405f205f915054906101000a900460ff1681565b5f5ffd5b5f5ffd5b5f73ffffffffffffffffffffffffffffffffffffffff82169050919050565b5f611509826114e0565b9050919050565b611519816114ff565b8114611523575f5ffd5b50565b5f8135905061153481611510565b92915050565b5f6020828403121561154f5761154e6114d8565b5b5f61155c84828501611526565b91505092915050565b5f819050919050565b61157781611565565b8114611581575f5ffd5b50565b5f813590506115928161156e565b92915050565b5f602082840312156115ad576115ac6114d8565b5b5f6115ba84828501611584565b91505092915050565b6115cc816114ff565b82525050565b5f81519050919050565b5f82825260208201905092915050565b8281835e5f83830152505050565b5f601f19601f8301169050919050565b5f611614826115d2565b61161e81856115dc565b935061162e8185602086016115ec565b611637816115fa565b840191505092915050565b61164b81611565565b82525050565b5f6080820190506116645f8301876115c3565b8181036020830152611676818661160a565b90506116856040830185611642565b61169260608301846115c3565b95945050505050565b5f8115159050919050565b6116af8161169b565b81146116b9575f5ffd5b50565b5f813590506116ca816116a6565b92915050565b5f5f5f606084860312156116e7576116e66114d8565b5b5f6116f486828701611526565b935050602061170586828701611526565b9250506040611716868287016116bc565b9150509250925092565b5f5f60408385031215611736576117356114d8565b5b5f61174385828601611526565b9250506020611754858286016116bc565b9150509250929050565b5f6020820190506117715f830184611642565b92915050565b5f81519050919050565b5f82825260208201905092915050565b5f819050602082019050919050565b6117a981611565565b82525050565b5f6117ba83836117a0565b60208301905092915050565b5f602082019050919050565b5f6117dc82611777565b6117e68185611781565b93506117f183611791565b805f5b8381101561182157815161180888826117af565b9750611813836117c6565b9250506001810190506117f4565b5085935050505092915050565b5f6020820190508181035f83015261184681846117d2565b905092915050565b5f5ffd5b5f5ffd5b5f5ffd5b5f5f83601f84011261186f5761186e61184e565b5b8235905067ffffffffffffffff81111561188c5761188b611852565b5b6020830191508360018202830111156118a8576118a7611856565b5b9250929050565b5f5f5f5f606085870312156118c7576118c66114d8565b5b5f6118d487828801611584565b945050602085013567ffffffffffffffff8111156118f5576118f46114dc565b5b6119018782880161185a565b9350935050604061191487828801611526565b91505092959194509250565b6119298161169b565b82525050565b5f6020820190506119425f830184611920565b92915050565b5f5f6040838503121561195e5761195d6114d8565b5b5f61196b85828601611526565b925050602061197c85828601611526565b9150509250929050565b5f6020820190506119995f8301846115c3565b92915050565b5f5f5f5f606085870312156119b7576119b66114d8565b5b5f6119c487828801611526565b945050602085013567ffffffffffffffff8111156119e5576119e46114dc565b5b6119f18782880161185a565b93509350506040611a0487828801611526565b91505092959194509250565b7f536f6d656e74652061646d696e000000000000000000000000000000000000005f82015250565b5f611a44600d836115dc565b9150611a4f82611a10565b602082019050919050565b5f6020820190508181035f830152611a7181611a38565b9050919050565b7f4e487b71000000000000000000000000000000000000000000000000000000005f52602260045260245ffd5b5f6002820490506001821680611abc57607f821691505b602082108103611acf57611ace611a78565b5b50919050565b7f41636573736f206e656761646f3a20536f6d656e7465204150490000000000005f82015250565b5f611b09601a836115dc565b9150611b1482611ad5565b602082019050919050565b5f6020820190508181035f830152611b3681611afd565b9050919050565b7f50616369656e7465206e616f207265676973747261646f0000000000000000005f82015250565b5f611b716017836115dc565b9150611b7c82611b3d565b602082019050919050565b5f6020820190508181035f830152611b9e81611b65565b9050919050565b7f50726f6e74756172696f206e616f2065786973746500000000000000000000005f82015250565b5f611bd96015836115dc565b9150611be482611ba5565b602082019050919050565b5f6020820190508181035f830152611c0681611bcd565b9050919050565b7f456e64657265636f206e616f206568206d656469636f000000000000000000005f82015250565b5f611c416016836115dc565b9150611c4c82611c0d565b602082019050919050565b5f6020820190508181035f830152611c6e81611c35565b9050919050565b7f4d656469636f2073656d20636f6e73656e74696d656e746f00000000000000005f82015250565b5f611ca96018836115dc565b9150611cb482611c75565b602082019050919050565b5f6020820190508181035f830152611cd681611c9d565b9050919050565b5f82905092915050565b7f4e487b71000000000000000000000000000000000000000000000000000000005f52604160045260245ffd5b5f819050815f5260205f209050919050565b5f6020601f8301049050919050565b5f82821b905092915050565b5f60088302611d707fffffffffffffffffffffffffffffffffffffffffffffffffffffffffffffffff82611d35565b611d7a8683611d35565b95508019841693508086168417925050509392505050565b5f819050919050565b5f611db5611db0611dab84611565565b611d92565b611565565b9050919050565b5f819050919050565b611dce83611d9b565b611de2611dda82611dbc565b848454611d41565b825550505050565b5f5f905090565b611df9611dea565b611e04818484611dc5565b505050565b5b81811015611e2757611e1c5f82611df1565b600181019050611e0a565b5050565b601f821115611e6c57611e3d81611d14565b611e4684611d26565b81016020851015611e55578190505b611e69611e6185611d26565b830182611e09565b50505b505050565b5f82821c905092915050565b5f611e8c5f1984600802611e71565b1980831691505092915050565b5f611ea48383611e7d565b9150826002028217905092915050565b611ebe8383611cdd565b67ffffffffffffffff811115611ed757611ed6611ce7565b5b611ee18254611aa5565b611eec828285611e2b565b5f601f831160018114611f19575f8415611f07578287013590505b611f118582611e99565b865550611f78565b601f198416611f2786611d14565b5f5b82811015611f4e57848901358255600182019150602085019450602081019050611f29565b86831015611f6b5784890135611f67601f891682611e7d565b8355505b6001600288020188555050505b50505050505050565b828183375f83830152505050565b5f611f9a83856115dc565b9350611fa7838584611f81565b611fb0836115fa565b840190509392505050565b5f6020820190508181035f830152611fd4818486611f8f565b90509392505050565b7f456e64657265636f20696e76616c69646f0000000000000000000000000000005f82015250565b5f6120116011836115dc565b915061201c82611fdd565b602082019050919050565b5f6020820190508181035f83015261203e81612005565b9050919050565b7f50616369656e7465206a61207265676973747261646f000000000000000000005f82015250565b5f6120796016836115dc565b915061208482612045565b602082019050919050565b5f6020820190508181035f8301526120a68161206d565b9050919050565b7f4f20656e64657265636f20666f726e656369646f206e616f20656820646520755f8201527f6d206d656469636f206175746f72697a61646f00000000000000000000000000602082015250565b5f6121076033836115dc565b9150612112826120ad565b604082019050919050565b5f6020820190508181035f830152612134816120fb565b9050919050565b7f4d656469636f2073656d20636f6e73656e74696d656e746f20646f20706163695f8201527f656e746500000000000000000000000000000000000000000000000000000000602082015250565b5f6121956024836115dc565b91506121a08261213b565b604082019050919050565b5f6020820190508181035f8301526121c281612189565b9050919050565b7f4e487b71000000000000000000000000000000000000000000000000000000005f52601160045260245ffd5b5f61220082611565565b91507fffffffffffffffffffffffffffffffffffffffffffffffffffffffffffffffff8203612232576122316121c9565b5b600182019050919050565b612246826115d2565b67ffffffffffffffff81111561225f5761225e611ce7565b5b6122698254611aa5565b612274828285611e2b565b5f60209050601f8311600181146122a5575f8415612293578287015190505b61229d8582611e99565b865550612304565b601f1984166122b386611d14565b5f5b828110156122da578489015182556001820191506020850194506020810190506122b5565b868310156122f757848901516122f3601f891682611e7d565b8355505b6001600288020188555050505b50505050505056fea2646970667358221220d42377d244e24f52dd19ea2cd31d62424b9baeb721f3ba480d5ba731ba377b9564736f6c634300081e0033","linkReferences":{}},"methodIdentifiers":{"admin()":"f851a440","apiSigner()":"aa553826","atualizarProntuario(uint256,string,address)":"86b57b2b","consentimento(address,address)":"9d0f4f1c","criarProntuario(address,string,address)":"bfc0f0dc","getProntuario(uint256)":"2bd16184","listarProntuarios(address)":"6973e675","nextId()":"61b8ce8c","pacientesRegistrados(address)":"954efe7b","profissionaisAutorizados(address)":"fe6fd06c","prontuarios(uint256)":"987674cd","registrarPaciente(address)":"b0733cd8","setApiSigner(address)":"0b984995","setConsentimento(address,address,bool)":"4b458333","setProfissionalAutorizado(address,bool)":"4f3bab84"},"id":17}